:03000000020A29C8
:0C0A2900787FE4F6D8FD75810C0209E42A
:1009E400E4F50C750901750A047508037589017528
:1009F4008CB1758AE0D2AFD2A91209AE120918805F
:010A0400F8F9
:1009AE0075B00175900B7F0A120A0575900C7F0ABF
:1009BE00120A0575900D7F0A120A0575B0807590A2
:1009CE00137F0A120A057590147F0A120A05759094
:0609DE00157F0A020A0564
:100918007F01E50964017045E508D3940750178500
:100928000A90D293AE08EFA806088002C333D8FC19
:10093800F5B005088069E508C394084062850A9007
:10094800D294E50824F8FEEFA806088002C333D83D
:10095800FCF5B00508E508640F7044803FE508C35E
:100968009408401A850A90D294E50824F8FEEFA866
:1009780006088002C333D8FCF5B015088021E508C5
:10098800D39407501A850A90D293AE08EFA80608A8
:100998008002C333D8FCFFF5B0D508036309FF7F95
:0609A800017E00020A1BA3
:100A0500E4FEEEC39F500EAD07EDD3940040031DE9
:050A150080F70E80EDEA
:010A1A0022B9
:1008000075F62075F320C2AF53F3F843F32043F39A
:100810002043F308AFF4ADF5ED2FFFE433FED3EF43
:100820009485EE648094805008AF9005908F9080FE
:1008300059AFF4ADF5ED2FFFE433FED3EF94AAEEFC
:100840006480948050047F0180027F00AEF4EEFD4E
:10085000AEF5EE2DFDE433FCD3ED9485EC6480948D
:100860008040047E0180027E00EE4F60028015AF62
:10087000F4ADF5ED2FFFE433FED3EF94AAEE6480E0
:1008800094804006AF9015908F9053F3EF75F6402B
:1008900075F320C2AF53F3F843F34043F32043F31F
:1008A00008AFF4ADF5ED2FFFE433FED3EF9485EE02
:1008B0006480948050028053AFF4ADF5ED2FFFE4D7
:1008C00033FED3EF94AAEE6480948050047F0180BD
:1008D000027F00AEF4EEFDAEF5EE2DFDE433FCD369
:1008E000ED9485EC6480948040047E0180027E005B
:1008F000EE4F60028015AFF4ADF5ED2FFFE433FE4F
:10090000D3EF94AAEE648094804006E5F525F4F5D3
:070910009053F3EF53F3EFE6
:0109170022BD
:090A1B007FFF7E28DEFEDFFA22D7
:050A2400EFDFFE2222BD
:00000001FF
