:020000040800F2
:10000000600600204902000851020008530200085F
:1000100055020008570200085902000800000000BD
:100020000000000000000000000000005B0200086B
:100030005D020008000000005F0200086102000885
:1000400063020008630200086302000863020008FC
:1000500063020008630200086302000863020008EC
:1000600063020008630200086302000863020008DC
:1000700063020008630200086302000863020008CC
:1000800063020008630200086302000863020008BC
:1000900063020008630200086302000863020008AC
:1000A000630200086302000863020008630200089C
:1000B000630200086302000863020008630200088C
:1000C000630200086302000863020008630200087C
:1000D000630200086302000863020008630200086C
:1000E000630200086302000863020008630200085C
:1000F000630200086302000863020008630200084C
:10010000630200086302000863020008630200083B
:10011000630200086302000863020008630200082B
:10012000630200086302000863020008630200081B
:1001300063020008000000000000000063020008E5
:1001400063020008630200086302000863020008FB
:1001500063020008630200086302000863020008EB
:1001600063020008630200086302000863020008DB
:100170006302000863020008630200080000000038
:100180000000000063020008000000000000000002
:100190006302000800000000000000006302000885
:1001A00000000000000000000000000063020008E2
:1001B000630200086302000863020008630200088B
:1001C0006302000800F002F800F02EF80AA090E8A0
:1001D000000C82448344AAF10107DA4501D100F002
:1001E00023F8AFF2090EBAE80F0013F0010F18BFA1
:1001F000FB1A43F001031847180200002802000010
:100200000023002400250026103A28BF78C1FBD81F
:10021000520728BF30C148BF0B6070471FB500F0C0
:10022000F1F81FBD10B510BD00F031F81146FFF711
:10023000F5FF00F0B5F800F04FF803B4FFF7F2FF58
:1002400003BC00F057F80000094880470948004700
:10025000FEE7FEE7FEE7FEE7FEE7FEE7FEE7FEE776
:10026000FEE7FEE704480549054A064B70470000D3
:100270003D030008C5010008600000206006002062
:10028000600200206002002070477047704775468A
:1002900000F02CF8AE4605006946534620F00700F2
:1002A000854618B020B5FFF7DDFFBDE820404FF0D0
:1002B00000064FF000074FF000084FF0000B21F050
:1002C0000701AC46ACE8C009ACE8C009ACE8C0091D
:1002D000ACE8C0098D46704710B50446AFF3008006
:1002E0002046BDE81040FFF7A8BF00000048704757
:1002F0000000002001491820ABBEFEE726000200E6
:1003000070470000002000E0401C02498842FBDBEF
:1003100070470000A086010000B500200549086074
:100320004FF4436004490860FFF7ECFF00200249E6
:10033000086000BD1408024014040240144800681C
:1003400040F47000124908601248006840F0010053
:100350001049086000200F49083108600D48006806
:100360000D4908400B4908600C48091D0860081F2A
:10037000006820F48020091F0860002005490C3126
:1003800008604FF000600249803908607047000043
:1003900088ED00E000380240FFFFF6FE1030002438
:1003A00000B51448006840F2111108431149086073
:1003B00010481430006840F2111108430D491431FF
:1003C00008600D48006800F470500B4908600B4845
:1003D000006841F215410840084908600848006873
:1003E00045F25551084006490860FFF795FF002087
:1003F00000BD00003038024000000240000402400E
:10040000000802404FF04070E1EE100A7047000013
:100410002004000800000020600600000002000820
:0400000508000249A4
:00000001FF
